{
    "_format": "hh-sol-artifact-1",
    "contractName": "SimpleBet",
    "sourceName": "contracts/SimpleBet.sol",
    "abi": [
        {
            "inputs": [
                {
                    "internalType": "address",
                    "name": "_treasuryFeesAddress",
                    "type": "address"
                },
                {
                    "internalType": "uint256",
                    "name": "_loserFee",
                    "type": "uint256"
                },
                {
                    "internalType": "uint256",
                    "name": "_tokenDecimals",
                    "type": "uint256"
                },
                {
                    "internalType": "address",
                    "name": "_depositToken",
                    "type": "address"
                }
            ],
            "stateMutability": "nonpayable",
            "type": "constructor"
        },
        {
            "anonymous": false,
            "inputs": [
                {
                    "indexed": false,
                    "internalType": "uint256",
                    "name": "_teamId",
                    "type": "uint256"
                },
                {
                    "indexed": false,
                    "internalType": "uint256",
                    "name": "_toBeDistributed",
                    "type": "uint256"
                }
            ],
            "name": "BetWinner",
            "type": "event"
        },
        {
            "anonymous": false,
            "inputs": [
                {
                    "indexed": true,
                    "internalType": "address",
                    "name": "previousOwner",
                    "type": "address"
                },
                {
                    "indexed": true,
                    "internalType": "address",
                    "name": "newOwner",
                    "type": "address"
                }
            ],
            "name": "OwnershipTransferred",
            "type": "event"
        },
        {
            "inputs": [],
            "name": "decimals",
            "outputs": [
                {
                    "internalType": "uint256",
                    "name": "",
                    "type": "uint256"
                }
            ],
            "stateMutability": "view",
            "type": "function"
        },
        {
            "inputs": [
                {
                    "internalType": "uint256",
                    "name": "_userChoice",
                    "type": "uint256"
                },
                {
                    "internalType": "uint256",
                    "name": "_amount",
                    "type": "uint256"
                }
            ],
            "name": "depositTeam",
            "outputs": [],
            "stateMutability": "nonpayable",
            "type": "function"
        },
        {
            "inputs": [],
            "name": "depositToken",
            "outputs": [
                {
                    "internalType": "contract IERC20",
                    "name": "",
                    "type": "address"
                }
            ],
            "stateMutability": "view",
            "type": "function"
        },
        {
            "inputs": [],
            "name": "depositedDraw",
            "outputs": [
                {
                    "internalType": "uint256",
                    "name": "",
                    "type": "uint256"
                }
            ],
            "stateMutability": "view",
            "type": "function"
        },
        {
            "inputs": [],
            "name": "depositedFirstTeam",
            "outputs": [
                {
                    "internalType": "uint256",
                    "name": "",
                    "type": "uint256"
                }
            ],
            "stateMutability": "view",
            "type": "function"
        },
        {
            "inputs": [],
            "name": "depositedSecondTeam",
            "outputs": [
                {
                    "internalType": "uint256",
                    "name": "",
                    "type": "uint256"
                }
            ],
            "stateMutability": "view",
            "type": "function"
        },
        {
            "inputs": [
                {
                    "internalType": "address",
                    "name": "",
                    "type": "address"
                }
            ],
            "name": "depositedUserDraw",
            "outputs": [
                {
                    "internalType": "uint256",
                    "name": "",
                    "type": "uint256"
                }
            ],
            "stateMutability": "view",
            "type": "function"
        },
        {
            "inputs": [
                {
                    "internalType": "address",
                    "name": "",
                    "type": "address"
                }
            ],
            "name": "depositedUserFirstTeam",
            "outputs": [
                {
                    "internalType": "uint256",
                    "name": "",
                    "type": "uint256"
                }
            ],
            "stateMutability": "view",
            "type": "function"
        },
        {
            "inputs": [
                {
                    "internalType": "address",
                    "name": "",
                    "type": "address"
                }
            ],
            "name": "depositedUserSecondTeam",
            "outputs": [
                {
                    "internalType": "uint256",
                    "name": "",
                    "type": "uint256"
                }
            ],
            "stateMutability": "view",
            "type": "function"
        },
        {
            "inputs": [],
            "name": "isOver",
            "outputs": [
                {
                    "internalType": "bool",
                    "name": "",
                    "type": "bool"
                }
            ],
            "stateMutability": "view",
            "type": "function"
        },
        {
            "inputs": [],
            "name": "loserFee",
            "outputs": [
                {
                    "internalType": "uint256",
                    "name": "",
                    "type": "uint256"
                }
            ],
            "stateMutability": "view",
            "type": "function"
        },
        {
            "inputs": [],
            "name": "owner",
            "outputs": [
                {
                    "internalType": "address",
                    "name": "",
                    "type": "address"
                }
            ],
            "stateMutability": "view",
            "type": "function"
        },
        {
            "inputs": [],
            "name": "remaining",
            "outputs": [
                {
                    "internalType": "uint256",
                    "name": "",
                    "type": "uint256"
                }
            ],
            "stateMutability": "view",
            "type": "function"
        },
        {
            "inputs": [],
            "name": "renounceOwnership",
            "outputs": [],
            "stateMutability": "nonpayable",
            "type": "function"
        },
        {
            "inputs": [
                {
                    "internalType": "uint256",
                    "name": "_team",
                    "type": "uint256"
                }
            ],
            "name": "setWinner",
            "outputs": [],
            "stateMutability": "nonpayable",
            "type": "function"
        },
        {
            "inputs": [],
            "name": "totalDeposited",
            "outputs": [
                {
                    "internalType": "uint256",
                    "name": "",
                    "type": "uint256"
                }
            ],
            "stateMutability": "view",
            "type": "function"
        },
        {
            "inputs": [
                {
                    "internalType": "address",
                    "name": "newOwner",
                    "type": "address"
                }
            ],
            "name": "transferOwnership",
            "outputs": [],
            "stateMutability": "nonpayable",
            "type": "function"
        },
        {
            "inputs": [],
            "name": "treasuryFeesAddress",
            "outputs": [
                {
                    "internalType": "address",
                    "name": "",
                    "type": "address"
                }
            ],
            "stateMutability": "view",
            "type": "function"
        },
        {
            "inputs": [],
            "name": "winnerId",
            "outputs": [
                {
                    "internalType": "uint256",
                    "name": "",
                    "type": "uint256"
                }
            ],
            "stateMutability": "view",
            "type": "function"
        },
        {
            "inputs": [],
            "name": "withdraw",
            "outputs": [],
            "stateMutability": "nonpayable",
            "type": "function"
        }
    ],
    "bytecode": "0x60806040526000600c60006101000a81548160ff0219169083151502179055503480156200002c57600080fd5b5060405162001b3238038062001b32833981810160405281019062000052919062000284565b62000072620000666200011360201b60201c565b6200011b60201b60201c565b6001808190555083600360006101000a81548173ffffffffffffffffffffffffffffffffffffffff021916908373ffffffffffffffffffffffffffffffffffffffff1602179055508260098190555080600260006101000a81548173ffffffffffffffffffffffffffffffffffffffff021916908373ffffffffffffffffffffffffffffffffffffffff16021790555081600a8190555050505050620002f6565b600033905090565b60008060009054906101000a900473ffffffffffffffffffffffffffffffffffffffff169050816000806101000a81548173ffffffffffffffffffffffffffffffffffffffff021916908373ffffffffffffffffffffffffffffffffffffffff1602179055508173ffffffffffffffffffffffffffffffffffffffff168173ffffffffffffffffffffffffffffffffffffffff167f8be0079c531659141344cd1fd0a4f28419497f9722a3daafe3b4186f6b6457e060405160405180910390a35050565b600080fd5b600073ffffffffffffffffffffffffffffffffffffffff82169050919050565b60006200021182620001e4565b9050919050565b620002238162000204565b81146200022f57600080fd5b50565b600081519050620002438162000218565b92915050565b6000819050919050565b6200025e8162000249565b81146200026a57600080fd5b50565b6000815190506200027e8162000253565b92915050565b60008060008060808587031215620002a157620002a0620001df565b5b6000620002b18782880162000232565b9450506020620002c4878288016200026d565b9350506040620002d7878288016200026d565b9250506060620002ea8782880162000232565b91505092959194509250565b61182c80620003066000396000f3fe608060405234801561001057600080fd5b506004361061012b5760003560e01c8063715018a6116100ad578063c89039c511610071578063c89039c5146102ea578063f0daec0b14610308578063f2fde38b14610338578063fce18f1014610354578063ff50abdc146103725761012b565b8063715018a6146102565780638da5cb5b1461026057806391e0d5931461027e5780639556c33b1461029c578063b4bd9e27146102cc5761012b565b80632088640e116100f45780632088640e146101c25780632fee251f146101f2578063313ce567146102105780633ccfd60b1461022e57806355234ec0146102385761012b565b8062dca0c0146101305780630df716021461014e5780630f64c67d1461016a578063193d2cb5146101865780631dd0c2ba146101a4575b600080fd5b610138610390565b60405161014591906110ed565b60405180910390f35b61016860048036038101906101639190611139565b610396565b005b610184600480360381019061017f9190611166565b610607565b005b61018e6109e1565b60405161019b91906111e7565b60405180910390f35b6101ac610a07565b6040516101b991906110ed565b60405180910390f35b6101dc60048036038101906101d7919061122e565b610a0d565b6040516101e991906110ed565b60405180910390f35b6101fa610a25565b60405161020791906110ed565b60405180910390f35b610218610a2b565b60405161022591906110ed565b60405180910390f35b610236610a31565b005b610240610e48565b60405161024d91906110ed565b60405180910390f35b61025e610e4e565b005b610268610e62565b60405161027591906111e7565b60405180910390f35b610286610e8b565b60405161029391906110ed565b60405180910390f35b6102b660048036038101906102b1919061122e565b610e91565b6040516102c391906110ed565b60405180910390f35b6102d4610ea9565b6040516102e19190611276565b60405180910390f35b6102f2610ebc565b6040516102ff91906112f0565b60405180910390f35b610322600480360381019061031d919061122e565b610ee2565b60405161032f91906110ed565b60405180910390f35b610352600480360381019061034d919061122e565b610efa565b005b61035c610f7e565b60405161036991906110ed565b60405180910390f35b61037a610f84565b60405161038791906110ed565b60405180910390f35b60095481565b61039e610f8a565b600c60009054906101000a900460ff16156103ee576040517f08c379a00000000000000000000000000000000000000000000000000000000081526004016103e590611368565b60405180910390fd5b806007819055506001600c60006101000a81548160ff021916908315150217905550600060065460055460045461042591906113b7565b61042f91906113b7565b600b819055506001600754141561047157600a5460095460065460055461045691906113b7565b610460919061140d565b61046a9190611496565b90506104db565b600260075414156104ad57600a5460095460065460045461049291906113b7565b61049c919061140d565b6104a69190611496565b90506104da565b600a546009546005546004546104c391906113b7565b6104cd919061140d565b6104d79190611496565b90505b5b80600b60008282546104ed91906114c7565b92505081905550600260009054906101000a900473ffffffffffffffffffffffffffffffffffffffff1673ffffffffffffffffffffffffffffffffffffffff166323b872dd30600360009054906101000a900473ffffffffffffffffffffffffffffffffffffffff16846040518463ffffffff1660e01b8152600401610575939291906114fb565b602060405180830381600087803b15801561058f57600080fd5b505af11580156105a3573d6000803e3d6000fd5b505050506040513d601f19601f820116820180604052508101906105c7919061155e565b507f6b62d3d3af8f72f5f1fb8e52b36f06d73163619ff5f567c0239c1f327d86f0b482600b546040516105fb92919061158b565b60405180910390a15050565b6002600154141561064d576040517f08c379a000000000000000000000000000000000000000000000000000000000815260040161064490611600565b60405180910390fd5b6002600181905550600182141561078457600260009054906101000a900473ffffffffffffffffffffffffffffffffffffffff1673ffffffffffffffffffffffffffffffffffffffff166323b872dd3330846040518463ffffffff1660e01b81526004016106bd939291906114fb565b602060405180830381600087803b1580156106d757600080fd5b505af11580156106eb573d6000803e3d6000fd5b505050506040513d601f19601f8201168201806040525081019061070f919061155e565b5080600d60003373ffffffffffffffffffffffffffffffffffffffff1673ffffffffffffffffffffffffffffffffffffffff168152602001908152602001600020600082825461075f91906113b7565b92505081905550806004600082825461077891906113b7565b925050819055506109d6565b60028214156108b357600260009054906101000a900473ffffffffffffffffffffffffffffffffffffffff1673ffffffffffffffffffffffffffffffffffffffff166323b872dd3330846040518463ffffffff1660e01b81526004016107ec939291906114fb565b602060405180830381600087803b15801561080657600080fd5b505af115801561081a573d6000803e3d6000fd5b505050506040513d601f19601f8201168201806040525081019061083e919061155e565b5080600e60003373ffffffffffffffffffffffffffffffffffffffff1673ffffffffffffffffffffffffffffffffffffffff168152602001908152602001600020600082825461088e91906113b7565b9250508190555080600560008282546108a791906113b7565b925050819055506109d5565b600260009054906101000a900473ffffffffffffffffffffffffffffffffffffffff1673ffffffffffffffffffffffffffffffffffffffff166323b872dd3330846040518463ffffffff1660e01b8152600401610912939291906114fb565b602060405180830381600087803b15801561092c57600080fd5b505af1158015610940573d6000803e3d6000fd5b505050506040513d601f19601f82011682018060405250810190610964919061155e565b5080600f60003373ffffffffffffffffffffffffffffffffffffffff1673ffffffffffffffffffffffffffffffffffffffff16815260200190815260200160002060008282546109b491906113b7565b9250508190555080600660008282546109cd91906113b7565b925050819055505b5b600180819055505050565b600360009054906101000a900473ffffffffffffffffffffffffffffffffffffffff1681565b60065481565b600d6020528060005260406000206000915090505481565b60055481565b600a5481565b600c60009054906101000a900460ff16610a80576040517f08c379a0000000000000000000000000000000000000000000000000000000008152600401610a779061166c565b60405180910390fd5b60026001541415610ac6576040517f08c379a0000000000000000000000000000000000000000000000000000000008152600401610abd90611600565b60405180910390fd5b6002600181905550600060016007541415610bbe576000600d60003373ffffffffffffffffffffffffffffffffffffffff1673ffffffffffffffffffffffffffffffffffffffff1681526020019081526020016000205411610b5d576040517f08c379a0000000000000000000000000000000000000000000000000000000008152600401610b54906116d8565b60405180910390fd5b600454600d60003373ffffffffffffffffffffffffffffffffffffffff1673ffffffffffffffffffffffffffffffffffffffff16815260200190815260200160002054600b54610bad919061140d565b610bb79190611496565b9050610d8c565b60026007541415610cac576000600e60003373ffffffffffffffffffffffffffffffffffffffff1673ffffffffffffffffffffffffffffffffffffffff1681526020019081526020016000205411610c4b576040517f08c379a0000000000000000000000000000000000000000000000000000000008152600401610c42906116d8565b60405180910390fd5b600554600e60003373ffffffffffffffffffffffffffffffffffffffff1673ffffffffffffffffffffffffffffffffffffffff16815260200190815260200160002054600b54610c9b919061140d565b610ca59190611496565b9050610d8b565b6000600f60003373ffffffffffffffffffffffffffffffffffffffff1673ffffffffffffffffffffffffffffffffffffffff1681526020019081526020016000205411610d2e576040517f08c379a0000000000000000000000000000000000000000000000000000000008152600401610d25906116d8565b60405180910390fd5b600654600f60003373ffffffffffffffffffffffffffffffffffffffff1673ffffffffffffffffffffffffffffffffffffffff16815260200190815260200160002054600b54610d7e919061140d565b610d889190611496565b90505b5b600260009054906101000a900473ffffffffffffffffffffffffffffffffffffffff1673ffffffffffffffffffffffffffffffffffffffff166323b872dd3033846040518463ffffffff1660e01b8152600401610deb939291906114fb565b602060405180830381600087803b158015610e0557600080fd5b505af1158015610e19573d6000803e3d6000fd5b505050506040513d601f19601f82011682018060405250810190610e3d919061155e565b505060018081905550565b60085481565b610e56610f8a565b610e606000611008565b565b60008060009054906101000a900473ffffffffffffffffffffffffffffffffffffffff16905090565b60075481565b600e6020528060005260406000206000915090505481565b600c60009054906101000a900460ff1681565b600260009054906101000a900473ffffffffffffffffffffffffffffffffffffffff1681565b600f6020528060005260406000206000915090505481565b610f02610f8a565b600073ffffffffffffffffffffffffffffffffffffffff168173ffffffffffffffffffffffffffffffffffffffff161415610f72576040517f08c379a0000000000000000000000000000000000000000000000000000000008152600401610f699061176a565b60405180910390fd5b610f7b81611008565b50565b60045481565b600b5481565b610f926110cc565b73ffffffffffffffffffffffffffffffffffffffff16610fb0610e62565b73ffffffffffffffffffffffffffffffffffffffff1614611006576040517f08c379a0000000000000000000000000000000000000000000000000000000008152600401610ffd906117d6565b60405180910390fd5b565b60008060009054906101000a900473ffffffffffffffffffffffffffffffffffffffff169050816000806101000a81548173ffffffffffffffffffffffffffffffffffffffff021916908373ffffffffffffffffffffffffffffffffffffffff1602179055508173ffffffffffffffffffffffffffffffffffffffff168173ffffffffffffffffffffffffffffffffffffffff167f8be0079c531659141344cd1fd0a4f28419497f9722a3daafe3b4186f6b6457e060405160405180910390a35050565b600033905090565b6000819050919050565b6110e7816110d4565b82525050565b600060208201905061110260008301846110de565b92915050565b600080fd5b611116816110d4565b811461112157600080fd5b50565b6000813590506111338161110d565b92915050565b60006020828403121561114f5761114e611108565b5b600061115d84828501611124565b91505092915050565b6000806040838503121561117d5761117c611108565b5b600061118b85828601611124565b925050602061119c85828601611124565b9150509250929050565b600073ffffffffffffffffffffffffffffffffffffffff82169050919050565b60006111d1826111a6565b9050919050565b6111e1816111c6565b82525050565b60006020820190506111fc60008301846111d8565b92915050565b61120b816111c6565b811461121657600080fd5b50565b60008135905061122881611202565b92915050565b60006020828403121561124457611243611108565b5b600061125284828501611219565b91505092915050565b60008115159050919050565b6112708161125b565b82525050565b600060208201905061128b6000830184611267565b92915050565b6000819050919050565b60006112b66112b16112ac846111a6565b611291565b6111a6565b9050919050565b60006112c88261129b565b9050919050565b60006112da826112bd565b9050919050565b6112ea816112cf565b82525050565b600060208201905061130560008301846112e1565b92915050565b600082825260208201905092915050565b7f4265742068617320616c7265616479206265656e20736574746c656421000000600082015250565b6000611352601d8361130b565b915061135d8261131c565b602082019050919050565b6000602082019050818103600083015261138181611345565b9050919050565b7f4e487b7100000000000000000000000000000000000000000000000000000000600052601160045260246000fd5b60006113c2826110d4565b91506113cd836110d4565b9250827fffffffffffffffffffffffffffffffffffffffffffffffffffffffffffffffff0382111561140257611401611388565b5b828201905092915050565b6000611418826110d4565b9150611423836110d4565b9250817fffffffffffffffffffffffffffffffffffffffffffffffffffffffffffffffff048311821515161561145c5761145b611388565b5b828202905092915050565b7f4e487b7100000000000000000000000000000000000000000000000000000000600052601260045260246000fd5b60006114a1826110d4565b91506114ac836110d4565b9250826114bc576114bb611467565b5b828204905092915050565b60006114d2826110d4565b91506114dd836110d4565b9250828210156114f0576114ef611388565b5b828203905092915050565b600060608201905061151060008301866111d8565b61151d60208301856111d8565b61152a60408301846110de565b949350505050565b61153b8161125b565b811461154657600080fd5b50565b60008151905061155881611532565b92915050565b60006020828403121561157457611573611108565b5b600061158284828501611549565b91505092915050565b60006040820190506115a060008301856110de565b6115ad60208301846110de565b9392505050565b7f5265656e7472616e637947756172643a207265656e7472616e742063616c6c00600082015250565b60006115ea601f8361130b565b91506115f5826115b4565b602082019050919050565b60006020820190508181036000830152611619816115dd565b9050919050565b7f426574207374696c6c206f6e676f696e67210000000000000000000000000000600082015250565b600061165660128361130b565b915061166182611620565b602082019050919050565b6000602082019050818103600083015261168581611649565b9050919050565b7f4e6f206465706f7369747320696e746f2077696e6e696e67206265742e000000600082015250565b60006116c2601d8361130b565b91506116cd8261168c565b602082019050919050565b600060208201905081810360008301526116f1816116b5565b9050919050565b7f4f776e61626c653a206e6577206f776e657220697320746865207a65726f206160008201527f6464726573730000000000000000000000000000000000000000000000000000602082015250565b600061175460268361130b565b915061175f826116f8565b604082019050919050565b6000602082019050818103600083015261178381611747565b9050919050565b7f4f776e61626c653a2063616c6c6572206973206e6f7420746865206f776e6572600082015250565b60006117c060208361130b565b91506117cb8261178a565b602082019050919050565b600060208201905081810360008301526117ef816117b3565b905091905056fea2646970667358221220b6abb7550e589d3831cbfb1212a53788562f815c6fb5c237a09e27427c243f1464736f6c63430008090033",
    "linkReferences": {},
    "deployedLinkReferences": {}
}